{
  "_format": "hh-sol-artifact-1",
  "contractName": "FileStorage",
  "sourceName": "contracts/FileStorage.sol",
  "abi": [
    {
      "anonymous": false,
      "inputs": [
        {
          "indexed": true,
          "internalType": "address",
          "name": "owner",
          "type": "address"
        },
        {
          "indexed": false,
          "internalType": "string",
          "name": "cid",
          "type": "string"
        },
        {
          "indexed": false,
          "internalType": "uint256",
          "name": "timestamp",
          "type": "uint256"
        }
      ],
      "name": "FileUploaded",
      "type": "event"
    },
    {
      "inputs": [],
      "name": "getFiles",
      "outputs": [
        {
          "components": [
            {
              "internalType": "address",
              "name": "owner",
              "type": "address"
            },
            {
              "internalType": "string",
              "name": "cid",
              "type": "string"
            },
            {
              "internalType": "uint256",
              "name": "timestamp",
              "type": "uint256"
            }
          ],
          "internalType": "struct FileStorage.FileData[]",
          "name": "",
          "type": "tuple[]"
        }
      ],
      "stateMutability": "view",
      "type": "function"
    },
    {
      "inputs": [
        {
          "internalType": "string",
          "name": "_cid",
          "type": "string"
        }
      ],
      "name": "uploadFile",
      "outputs": [],
      "stateMutability": "nonpayable",
      "type": "function"
    }
  ],
  "bytecode": "0x6080604052348015600f57600080fd5b50610aa38061001f6000396000f3fe608060405234801561001057600080fd5b50600436106100365760003560e01c80632da96d731461003b578063e37ffc3014610059575b600080fd5b610043610075565b6040516100509190610552565b60405180910390f35b610073600480360381019061006e91906106bd565b610202565b005b60606000803373ffffffffffffffffffffffffffffffffffffffff1673ffffffffffffffffffffffffffffffffffffffff168152602001908152602001600020805480602002602001604051908101604052809291908181526020016000905b828210156101f957838290600052602060002090600302016040518060600160405290816000820160009054906101000a900473ffffffffffffffffffffffffffffffffffffffff1673ffffffffffffffffffffffffffffffffffffffff1673ffffffffffffffffffffffffffffffffffffffff16815260200160018201805461015e90610735565b80601f016020809104026020016040519081016040528092919081815260200182805461018a90610735565b80156101d75780601f106101ac576101008083540402835291602001916101d7565b820191906000526020600020905b8154815290600101906020018083116101ba57829003601f168201915b50505050508152602001600282015481525050815260200190600101906100d5565b50505050905090565b6000803373ffffffffffffffffffffffffffffffffffffffff1673ffffffffffffffffffffffffffffffffffffffff16815260200190815260200160002060405180606001604052803373ffffffffffffffffffffffffffffffffffffffff16815260200183815260200142815250908060018154018082558091505060019003906000526020600020906003020160009091909190915060008201518160000160006101000a81548173ffffffffffffffffffffffffffffffffffffffff021916908373ffffffffffffffffffffffffffffffffffffffff16021790555060208201518160010190816102f69190610912565b506040820151816002015550503373ffffffffffffffffffffffffffffffffffffffff167f2256cc6482ddef3e8146b3b654095ac2e0d51bc048a5685c6d950c959ee5acb5824260405161034b929190610a3d565b60405180910390a250565b600081519050919050565b600082825260208201905092915050565b6000819050602082019050919050565b600073ffffffffffffffffffffffffffffffffffffffff82169050919050565b60006103ad82610382565b9050919050565b6103bd816103a2565b82525050565b600081519050919050565b600082825260208201905092915050565b60005b838110156103fd5780820151818401526020810190506103e2565b60008484015250505050565b6000601f19601f8301169050919050565b6000610425826103c3565b61042f81856103ce565b935061043f8185602086016103df565b61044881610409565b840191505092915050565b6000819050919050565b61046681610453565b82525050565b600060608301600083015161048460008601826103b4565b506020830151848203602086015261049c828261041a565b91505060408301516104b1604086018261045d565b508091505092915050565b60006104c8838361046c565b905092915050565b6000602082019050919050565b60006104e882610356565b6104f28185610361565b93508360208202850161050485610372565b8060005b85811015610540578484038952815161052185826104bc565b945061052c836104d0565b925060208a01995050600181019050610508565b50829750879550505050505092915050565b6000602082019050818103600083015261056c81846104dd565b905092915050565b6000604051905090565b600080fd5b600080fd5b600080fd5b600080fd5b7f4e487b7100000000000000000000000000000000000000000000000000000000600052604160045260246000fd5b6105ca82610409565b810181811067ffffffffffffffff821117156105e9576105e8610592565b5b80604052505050565b60006105fc610574565b905061060882826105c1565b919050565b600067ffffffffffffffff82111561062857610627610592565b5b61063182610409565b9050602081019050919050565b82818337600083830152505050565b600061066061065b8461060d565b6105f2565b90508281526020810184848401111561067c5761067b61058d565b5b61068784828561063e565b509392505050565b600082601f8301126106a4576106a3610588565b5b81356106b484826020860161064d565b91505092915050565b6000602082840312156106d3576106d261057e565b5b600082013567ffffffffffffffff8111156106f1576106f0610583565b5b6106fd8482850161068f565b91505092915050565b7f4e487b7100000000000000000000000000000000000000000000000000000000600052602260045260246000fd5b6000600282049050600182168061074d57607f821691505b6020821081036107605761075f610706565b5b50919050565b60008190508160005260206000209050919050565b60006020601f8301049050919050565b600082821b905092915050565b6000600883026107c87fffffffffffffffffffffffffffffffffffffffffffffffffffffffffffffffff8261078b565b6107d2868361078b565b95508019841693508086168417925050509392505050565b6000819050919050565b600061080f61080a61080584610453565b6107ea565b610453565b9050919050565b6000819050919050565b610829836107f4565b61083d61083582610816565b848454610798565b825550505050565b600090565b610852610845565b61085d818484610820565b505050565b5b818110156108815761087660008261084a565b600181019050610863565b5050565b601f8211156108c65761089781610766565b6108a08461077b565b810160208510156108af578190505b6108c36108bb8561077b565b830182610862565b50505b505050565b600082821c905092915050565b60006108e9600019846008026108cb565b1980831691505092915050565b600061090283836108d8565b9150826002028217905092915050565b61091b826103c3565b67ffffffffffffffff81111561093457610933610592565b5b61093e8254610735565b610949828285610885565b600060209050601f83116001811461097c576000841561096a578287015190505b61097485826108f6565b8655506109dc565b601f19841661098a86610766565b60005b828110156109b25784890151825560018201915060208501945060208101905061098d565b868310156109cf57848901516109cb601f8916826108d8565b8355505b6001600288020188555050505b505050505050565b600082825260208201905092915050565b6000610a00826103c3565b610a0a81856109e4565b9350610a1a8185602086016103df565b610a2381610409565b840191505092915050565b610a3781610453565b82525050565b60006040820190508181036000830152610a5781856109f5565b9050610a666020830184610a2e565b939250505056fea26469706673582212203cab7250fd88795fc3a1660eb0c2469d675a574128259435de79055e9fabd4e064736f6c634300081c0033",
  "linkReferences": {},
  "deployedLinkReferences": {}
}